{
  "contractName": "JccMoacMultiSig",
  "abi": [
    {
      "constant": false,
      "inputs": [],
      "name": "renounceOwnership",
      "outputs": [],
      "payable": false,
      "stateMutability": "nonpayable",
      "type": "function"
    },
    {
      "constant": true,
      "inputs": [],
      "name": "owner",
      "outputs": [
        {
          "name": "",
          "type": "address"
        }
      ],
      "payable": false,
      "stateMutability": "view",
      "type": "function"
    },
    {
      "constant": false,
      "inputs": [
        {
          "name": "newAdmin",
          "type": "address"
        }
      ],
      "name": "transferAdministrator",
      "outputs": [],
      "payable": false,
      "stateMutability": "nonpayable",
      "type": "function"
    },
    {
      "constant": false,
      "inputs": [
        {
          "name": "newOwner",
          "type": "address"
        }
      ],
      "name": "transferOwnership",
      "outputs": [],
      "payable": false,
      "stateMutability": "nonpayable",
      "type": "function"
    },
    {
      "constant": true,
      "inputs": [],
      "name": "admin",
      "outputs": [
        {
          "name": "",
          "type": "address"
        }
      ],
      "payable": false,
      "stateMutability": "view",
      "type": "function"
    },
    {
      "inputs": [],
      "payable": false,
      "stateMutability": "nonpayable",
      "type": "constructor"
    },
    {
      "payable": true,
      "stateMutability": "payable",
      "type": "fallback"
    },
    {
      "anonymous": false,
      "inputs": [
        {
          "indexed": true,
          "name": "topicId",
          "type": "uint256"
        },
        {
          "indexed": true,
          "name": "voteType",
          "type": "uint256"
        },
        {
          "indexed": true,
          "name": "value",
          "type": "uint256"
        },
        {
          "indexed": false,
          "name": "target",
          "type": "address"
        }
      ],
      "name": "CreateProposal",
      "type": "event"
    },
    {
      "anonymous": false,
      "inputs": [
        {
          "indexed": true,
          "name": "topicId",
          "type": "uint256"
        },
        {
          "indexed": true,
          "name": "timestamp",
          "type": "uint256"
        },
        {
          "indexed": true,
          "name": "confirm",
          "type": "bool"
        }
      ],
      "name": "Vote",
      "type": "event"
    },
    {
      "anonymous": false,
      "inputs": [
        {
          "indexed": true,
          "name": "topicId",
          "type": "uint256"
        },
        {
          "indexed": true,
          "name": "yesCount",
          "type": "uint256"
        },
        {
          "indexed": true,
          "name": "totalCount",
          "type": "uint256"
        }
      ],
      "name": "CloseProposal",
      "type": "event"
    },
    {
      "anonymous": false,
      "inputs": [
        {
          "indexed": true,
          "name": "user",
          "type": "address"
        },
        {
          "indexed": true,
          "name": "amount",
          "type": "uint256"
        },
        {
          "indexed": false,
          "name": "totalWithdraw",
          "type": "uint256"
        },
        {
          "indexed": true,
          "name": "left",
          "type": "uint256"
        }
      ],
      "name": "Withdraw",
      "type": "event"
    },
    {
      "anonymous": false,
      "inputs": [
        {
          "indexed": true,
          "name": "user",
          "type": "address"
        },
        {
          "indexed": true,
          "name": "amount",
          "type": "uint256"
        },
        {
          "indexed": true,
          "name": "total",
          "type": "uint256"
        }
      ],
      "name": "Deposit",
      "type": "event"
    },
    {
      "anonymous": false,
      "inputs": [
        {
          "indexed": true,
          "name": "previousOwner",
          "type": "address"
        },
        {
          "indexed": true,
          "name": "newOwner",
          "type": "address"
        }
      ],
      "name": "OwnershipTransferred",
      "type": "event"
    },
    {
      "anonymous": false,
      "inputs": [
        {
          "indexed": true,
          "name": "previousAdmin",
          "type": "address"
        },
        {
          "indexed": true,
          "name": "newAdmin",
          "type": "address"
        }
      ],
      "name": "AdministratorTransferred",
      "type": "event"
    },
    {
      "constant": false,
      "inputs": [
        {
          "name": "count",
          "type": "uint256"
        },
        {
          "name": "percent",
          "type": "uint256"
        },
        {
          "name": "voters",
          "type": "address[]"
        }
      ],
      "name": "configureOnce",
      "outputs": [],
      "payable": false,
      "stateMutability": "nonpayable",
      "type": "function"
    },
    {
      "constant": false,
      "inputs": [
        {
          "name": "flag",
          "type": "bool"
        }
      ],
      "name": "setStopDeposit",
      "outputs": [],
      "payable": false,
      "stateMutability": "nonpayable",
      "type": "function"
    },
    {
      "constant": true,
      "inputs": [],
      "name": "getStopDeposit",
      "outputs": [
        {
          "name": "",
          "type": "bool"
        }
      ],
      "payable": false,
      "stateMutability": "view",
      "type": "function"
    },
    {
      "constant": true,
      "inputs": [],
      "name": "getPercent",
      "outputs": [
        {
          "name": "",
          "type": "uint256"
        }
      ],
      "payable": false,
      "stateMutability": "view",
      "type": "function"
    },
    {
      "constant": true,
      "inputs": [],
      "name": "getVoters",
      "outputs": [
        {
          "name": "",
          "type": "address[]"
        }
      ],
      "payable": false,
      "stateMutability": "view",
      "type": "function"
    },
    {
      "constant": true,
      "inputs": [
        {
          "name": "addr",
          "type": "address"
        }
      ],
      "name": "isVoter",
      "outputs": [
        {
          "name": "",
          "type": "bool"
        }
      ],
      "payable": false,
      "stateMutability": "view",
      "type": "function"
    },
    {
      "constant": false,
      "inputs": [
        {
          "name": "topicId",
          "type": "uint256"
        },
        {
          "name": "timestamp",
          "type": "uint256"
        },
        {
          "name": "endtime",
          "type": "uint256"
        },
        {
          "name": "percent",
          "type": "uint256"
        }
      ],
      "name": "createPercentProposal",
      "outputs": [
        {
          "name": "",
          "type": "bool"
        }
      ],
      "payable": false,
      "stateMutability": "nonpayable",
      "type": "function"
    },
    {
      "constant": false,
      "inputs": [
        {
          "name": "topicId",
          "type": "uint256"
        },
        {
          "name": "timestamp",
          "type": "uint256"
        },
        {
          "name": "endtime",
          "type": "uint256"
        },
        {
          "name": "target",
          "type": "address"
        }
      ],
      "name": "createVoterProposal",
      "outputs": [
        {
          "name": "",
          "type": "bool"
        }
      ],
      "payable": false,
      "stateMutability": "nonpayable",
      "type": "function"
    },
    {
      "constant": false,
      "inputs": [
        {
          "name": "topicId",
          "type": "uint256"
        },
        {
          "name": "timestamp",
          "type": "uint256"
        },
        {
          "name": "endtime",
          "type": "uint256"
        },
        {
          "name": "target",
          "type": "address"
        }
      ],
      "name": "createRecallProposal",
      "outputs": [
        {
          "name": "",
          "type": "bool"
        }
      ],
      "payable": false,
      "stateMutability": "nonpayable",
      "type": "function"
    },
    {
      "constant": false,
      "inputs": [
        {
          "name": "topicId",
          "type": "uint256"
        },
        {
          "name": "timestamp",
          "type": "uint256"
        },
        {
          "name": "endtime",
          "type": "uint256"
        },
        {
          "name": "amount",
          "type": "uint256"
        }
      ],
      "name": "createWithdrawProposal",
      "outputs": [
        {
          "name": "",
          "type": "bool"
        }
      ],
      "payable": false,
      "stateMutability": "nonpayable",
      "type": "function"
    },
    {
      "constant": true,
      "inputs": [],
      "name": "getVotingCount",
      "outputs": [
        {
          "name": "",
          "type": "uint256"
        }
      ],
      "payable": false,
      "stateMutability": "view",
      "type": "function"
    },
    {
      "constant": true,
      "inputs": [],
      "name": "getVotedCount",
      "outputs": [
        {
          "name": "",
          "type": "uint256"
        }
      ],
      "payable": false,
      "stateMutability": "view",
      "type": "function"
    },
    {
      "constant": true,
      "inputs": [],
      "name": "getMyVotingCount",
      "outputs": [
        {
          "name": "",
          "type": "uint256"
        }
      ],
      "payable": false,
      "stateMutability": "view",
      "type": "function"
    },
    {
      "constant": true,
      "inputs": [],
      "name": "getMyVotedCount",
      "outputs": [
        {
          "name": "",
          "type": "uint256"
        }
      ],
      "payable": false,
      "stateMutability": "view",
      "type": "function"
    },
    {
      "constant": true,
      "inputs": [],
      "name": "getAllVotingTopicIds",
      "outputs": [
        {
          "name": "",
          "type": "uint256[]"
        }
      ],
      "payable": false,
      "stateMutability": "view",
      "type": "function"
    },
    {
      "constant": true,
      "inputs": [],
      "name": "getAllMyVotingTopicIds",
      "outputs": [
        {
          "name": "",
          "type": "uint256[]"
        }
      ],
      "payable": false,
      "stateMutability": "view",
      "type": "function"
    },
    {
      "constant": true,
      "inputs": [
        {
          "name": "from",
          "type": "uint256"
        },
        {
          "name": "to",
          "type": "uint256"
        }
      ],
      "name": "getVotedTopicIds",
      "outputs": [
        {
          "name": "",
          "type": "uint256[]"
        }
      ],
      "payable": false,
      "stateMutability": "view",
      "type": "function"
    },
    {
      "constant": true,
      "inputs": [
        {
          "name": "from",
          "type": "uint256"
        },
        {
          "name": "to",
          "type": "uint256"
        }
      ],
      "name": "getMyVotedTopicIds",
      "outputs": [
        {
          "name": "",
          "type": "uint256[]"
        }
      ],
      "payable": false,
      "stateMutability": "view",
      "type": "function"
    },
    {
      "constant": true,
      "inputs": [
        {
          "name": "topicId",
          "type": "uint256"
        }
      ],
      "name": "getTopic",
      "outputs": [
        {
          "components": [
            {
              "name": "topicId",
              "type": "uint256"
            },
            {
              "name": "timestamp",
              "type": "uint256"
            },
            {
              "name": "endtime",
              "type": "uint256"
            },
            {
              "name": "voteType",
              "type": "uint256"
            },
            {
              "name": "origin",
              "type": "uint256"
            },
            {
              "name": "value",
              "type": "uint256"
            },
            {
              "name": "yesCount",
              "type": "uint256"
            },
            {
              "name": "noCount",
              "type": "uint256"
            },
            {
              "name": "idx",
              "type": "uint256"
            },
            {
              "name": "voters",
              "type": "uint256"
            },
            {
              "name": "percent",
              "type": "uint256"
            },
            {
              "name": "target",
              "type": "address"
            },
            {
              "name": "sponsor",
              "type": "address"
            },
            {
              "name": "flag",
              "type": "bool"
            }
          ],
          "name": "",
          "type": "tuple"
        }
      ],
      "payable": false,
      "stateMutability": "view",
      "type": "function"
    },
    {
      "constant": false,
      "inputs": [
        {
          "name": "topicId",
          "type": "uint256"
        },
        {
          "name": "timestamp",
          "type": "uint256"
        },
        {
          "name": "confirm",
          "type": "bool"
        }
      ],
      "name": "voteTopic",
      "outputs": [
        {
          "name": "",
          "type": "bool"
        }
      ],
      "payable": false,
      "stateMutability": "nonpayable",
      "type": "function"
    },
    {
      "constant": false,
      "inputs": [
        {
          "name": "topicIds",
          "type": "uint256[]"
        },
        {
          "name": "timestamp",
          "type": "uint256"
        },
        {
          "name": "confirm",
          "type": "bool"
        }
      ],
      "name": "batchVoteTopic",
      "outputs": [
        {
          "name": "",
          "type": "bool"
        }
      ],
      "payable": false,
      "stateMutability": "nonpayable",
      "type": "function"
    },
    {
      "constant": true,
      "inputs": [
        {
          "name": "topicId",
          "type": "uint256"
        }
      ],
      "name": "getDetailIdxs",
      "outputs": [
        {
          "name": "",
          "type": "bytes32[]"
        }
      ],
      "payable": false,
      "stateMutability": "view",
      "type": "function"
    },
    {
      "constant": true,
      "inputs": [
        {
          "name": "topicId",
          "type": "uint256"
        }
      ],
      "name": "getVoteDetail",
      "outputs": [
        {
          "components": [
            {
              "name": "topicId",
              "type": "uint256"
            },
            {
              "name": "timestamp",
              "type": "uint256"
            },
            {
              "name": "idx",
              "type": "uint256"
            },
            {
              "name": "voter",
              "type": "address"
            },
            {
              "name": "flag",
              "type": "bool"
            }
          ],
          "name": "",
          "type": "tuple"
        }
      ],
      "payable": false,
      "stateMutability": "view",
      "type": "function"
    },
    {
      "constant": true,
      "inputs": [
        {
          "name": "topicId",
          "type": "uint256"
        }
      ],
      "name": "getVoteDetailsByTopic",
      "outputs": [
        {
          "components": [
            {
              "name": "topicId",
              "type": "uint256"
            },
            {
              "name": "timestamp",
              "type": "uint256"
            },
            {
              "name": "idx",
              "type": "uint256"
            },
            {
              "name": "voter",
              "type": "address"
            },
            {
              "name": "flag",
              "type": "bool"
            }
          ],
          "name": "",
          "type": "tuple[]"
        }
      ],
      "payable": false,
      "stateMutability": "view",
      "type": "function"
    },
    {
      "constant": true,
      "inputs": [
        {
          "name": "endtime",
          "type": "uint256"
        }
      ],
      "name": "haveExpire",
      "outputs": [
        {
          "components": [
            {
              "name": "topicId",
              "type": "uint256"
            },
            {
              "name": "timestamp",
              "type": "uint256"
            },
            {
              "name": "endtime",
              "type": "uint256"
            },
            {
              "name": "voteType",
              "type": "uint256"
            },
            {
              "name": "origin",
              "type": "uint256"
            },
            {
              "name": "value",
              "type": "uint256"
            },
            {
              "name": "yesCount",
              "type": "uint256"
            },
            {
              "name": "noCount",
              "type": "uint256"
            },
            {
              "name": "idx",
              "type": "uint256"
            },
            {
              "name": "voters",
              "type": "uint256"
            },
            {
              "name": "percent",
              "type": "uint256"
            },
            {
              "name": "target",
              "type": "address"
            },
            {
              "name": "sponsor",
              "type": "address"
            },
            {
              "name": "flag",
              "type": "bool"
            }
          ],
          "name": "",
          "type": "tuple[]"
        },
        {
          "name": "",
          "type": "uint256"
        }
      ],
      "payable": false,
      "stateMutability": "view",
      "type": "function"
    },
    {
      "constant": false,
      "inputs": [
        {
          "name": "endtime",
          "type": "uint256"
        }
      ],
      "name": "processExpire",
      "outputs": [
        {
          "name": "",
          "type": "bool"
        }
      ],
      "payable": false,
      "stateMutability": "nonpayable",
      "type": "function"
    },
    {
      "constant": false,
      "inputs": [],
      "name": "jccMoacAlarmCallback",
      "outputs": [],
      "payable": false,
      "stateMutability": "nonpayable",
      "type": "function"
    },
    {
      "constant": false,
      "inputs": [
        {
          "name": "_alarmAddr",
          "type": "address"
        },
        {
          "name": "_type",
          "type": "uint256"
        },
        {
          "name": "_period",
          "type": "uint256"
        }
      ],
      "name": "setAlarm",
      "outputs": [],
      "payable": false,
      "stateMutability": "nonpayable",
      "type": "function"
    },
    {
      "constant": false,
      "inputs": [
        {
          "name": "alarmAddr",
          "type": "address"
        }
      ],
      "name": "removeAlarm",
      "outputs": [],
      "payable": false,
      "stateMutability": "nonpayable",
      "type": "function"
    },
    {
      "constant": false,
      "inputs": [],
      "name": "deposit",
      "outputs": [],
      "payable": true,
      "stateMutability": "payable",
      "type": "function"
    },
    {
      "constant": true,
      "inputs": [
        {
          "name": "_addr",
          "type": "address"
        }
      ],
      "name": "getBalance",
      "outputs": [
        {
          "name": "",
          "type": "uint256"
        }
      ],
      "payable": false,
      "stateMutability": "view",
      "type": "function"
    },
    {
      "constant": true,
      "inputs": [
        {
          "name": "_addr",
          "type": "address"
        }
      ],
      "name": "getDepositBalance",
      "outputs": [
        {
          "name": "",
          "type": "uint256"
        }
      ],
      "payable": false,
      "stateMutability": "view",
      "type": "function"
    },
    {
      "constant": true,
      "inputs": [],
      "name": "getDepositCount",
      "outputs": [
        {
          "name": "",
          "type": "uint256"
        }
      ],
      "payable": false,
      "stateMutability": "view",
      "type": "function"
    },
    {
      "constant": true,
      "inputs": [
        {
          "name": "from",
          "type": "uint256"
        },
        {
          "name": "count",
          "type": "uint256"
        }
      ],
      "name": "getDepositList",
      "outputs": [
        {
          "components": [
            {
              "name": "addr",
              "type": "address"
            },
            {
              "name": "idx",
              "type": "uint256"
            },
            {
              "name": "balance",
              "type": "uint256"
            }
          ],
          "name": "",
          "type": "tuple[]"
        }
      ],
      "payable": false,
      "stateMutability": "view",
      "type": "function"
    },
    {
      "constant": true,
      "inputs": [
        {
          "name": "_addr",
          "type": "address"
        }
      ],
      "name": "getWithdrawBalance",
      "outputs": [
        {
          "name": "",
          "type": "uint256"
        }
      ],
      "payable": false,
      "stateMutability": "view",
      "type": "function"
    },
    {
      "constant": true,
      "inputs": [],
      "name": "getWithdrawCount",
      "outputs": [
        {
          "name": "",
          "type": "uint256"
        }
      ],
      "payable": false,
      "stateMutability": "view",
      "type": "function"
    },
    {
      "constant": true,
      "inputs": [
        {
          "name": "from",
          "type": "uint256"
        },
        {
          "name": "count",
          "type": "uint256"
        }
      ],
      "name": "getWithdrawList",
      "outputs": [
        {
          "components": [
            {
              "name": "addr",
              "type": "address"
            },
            {
              "name": "idx",
              "type": "uint256"
            },
            {
              "name": "balance",
              "type": "uint256"
            }
          ],
          "name": "",
          "type": "tuple[]"
        }
      ],
      "payable": false,
      "stateMutability": "view",
      "type": "function"
    },
    {
      "constant": false,
      "inputs": [],
      "name": "kill",
      "outputs": [],
      "payable": false,
      "stateMutability": "nonpayable",
      "type": "function"
    }
  ],
  "bytecode": "0x608060405234801561001057600080fd5b506000805433600160a060020a0319918216811780845560018054909316909117909155604051600160a060020a0390911691907f8be0079c531659141344cd1fd0a4f28419497f9722a3daafe3b4186f6b6457e0908290a3600154604051600160a060020a03909116906000907f399b55200f7f639a63d76efe3dcfa9156ce367058d6b673041b84a628885f5a7908290a36010805461ff001960ff199091166001171690556003600e556032600f556149d9806100d06000396000f30060806040526004361061020e5763ffffffff7c01000000000000000000000000000000000000000000000000000000006000350416631a793ffa811461023457806323eb49e5146102545780632a6dd8c9146102745780632d9435ba1461029f57806333c6d576146102c1578063419963b5146102ee57806341c0e1b51461031b578063431b9ac31461033057806347d04c711461035057806347eb17cc1461036557806350787bcc14610385578063514e2277146103b2578063648d2af5146103c757806369f9b592146103dc5780636c58ee91146103fc578063715018a61461041c578063716588961461043157806375b54de11461045e57806375e5af3b1461047e5780638da5cb5b1461049e5780639363a141146104c057806397fd317c146104d5578063987b81a1146104ea5780639bdccb07146105185780639c2aab5e14610538578063a38477a31461054d578063a7771ee31461057a578063a82acfa41461059a578063b54ccddb146105c7578063baa7e456146105dc578063c648a3a2146105f1578063c8d68ab214610611578063cca8cf2714610631578063cdd7225314610646578063d0e30db014610668578063e589c36114610670578063ed05ae7814610690578063f014bbeb146106b0578063f2fde38b146106d0578063f707f733146106f0578063f84bc4eb14610710578063f851a44014610730578063f8b2cb4f14610745575b60405160e560020a62461bcd02815260040161022990614871565b60405180910390fd5b005b34801561024057600080fd5b5061023261024f36600461361b565b610765565b34801561026057600080fd5b5061023261026f3660046136c2565b61083c565b34801561028057600080fd5b50610289610883565b604051610296919061490e565b60405180910390f35b3480156102ab57600080fd5b506102b461088a565b6040516102969190614662565b3480156102cd57600080fd5b506102e16102dc36600461371c565b61089b565b6040516102969190614620565b3480156102fa57600080fd5b5061030e610309366004613833565b6108b8565b6040516102969190614673565b34801561032757600080fd5b50610232610a0c565b34801561033c57600080fd5b506102b461034b36600461371c565b610a3c565b34801561035c57600080fd5b50610289610a51565b34801561037157600080fd5b506102e161038036600461371c565b610a5d565b34801561039157600080fd5b506103a56103a03660046136fe565b610a71565b6040516102969190614900565b3480156103be57600080fd5b50610232610b25565b3480156103d357600080fd5b50610289610b3d565b3480156103e857600080fd5b5061030e6103f7366004613833565b610b49565b34801561040857600080fd5b5061030e6104173660046137d2565b610ca7565b34801561042857600080fd5b50610232610d7a565b34801561043d57600080fd5b5061045161044c3660046136fe565b610df1565b60405161029691906148f1565b34801561046a57600080fd5b5061030e610479366004613668565b610e0a565b34801561048a57600080fd5b506102896104993660046135fd565b610e86565b3480156104aa57600080fd5b506104b3610e99565b60405161029691906145bb565b3480156104cc57600080fd5b50610289610ea8565b3480156104e157600080fd5b50610289610eb4565b3480156104f657600080fd5b5061050a6105053660046136fe565b610ec7565b604051610296929190614631565b34801561052457600080fd5b506102326105333660046135fd565b61107d565b34801561054457600080fd5b5061028961114c565b34801561055957600080fd5b5061056d6105683660046136fe565b611158565b6040516102969190614651565b34801561058657600080fd5b5061030e6105953660046135fd565b61116b565b3480156105a657600080fd5b506105ba6105b53660046136fe565b61117e565b604051610296919061460f565b3480156105d357600080fd5b50610289611191565b3480156105e857600080fd5b506102b46111a4565b3480156105fd57600080fd5b5061023261060c3660046135fd565b6111b7565b34801561061d57600080fd5b5061030e61062c3660046136fe565b611282565b34801561063d57600080fd5b5061030e6113e1565b34801561065257600080fd5b5061065b6113ef565b60405161029691906145fe565b61023261140f565b34801561067c57600080fd5b5061030e61068b3660046137b1565b6114e6565b34801561069c57600080fd5b506102896106ab3660046135fd565b61159d565b3480156106bc57600080fd5b5061030e6106cb3660046137d2565b6115b0565b3480156106dc57600080fd5b506102326106eb3660046135fd565b6116e3565b3480156106fc57600080fd5b5061023261070b366004613756565b611796565b34801561071c57600080fd5b506102b461072b36600461371c565b6118b2565b34801561073c57600080fd5b506104b36118c6565b34801561075157600080fd5b506102896107603660046135fd565b6118d5565b600154600090600160a060020a031633146107955760405160e560020a62461bcd02815260040161022990614751565b506040517f6edce96d0000000000000000000000000000000000000000000000000000000081528390600160a060020a03821690636edce96d906107e39030908790429088906004016145c9565b602060405180830381600087803b1580156107fd57600080fd5b505af1158015610811573d6000803e3d6000fd5b505050506040513d601f19601f8201168201806040525061083591908101906136e0565b5050505050565b600154600160a060020a031633146108695760405160e560020a62461bcd02815260040161022990614751565b601080549115156101000261ff0019909216919091179055565b600f545b90565b60606108966008611917565b905090565b60606108af6006848463ffffffff61197616565b90505b92915050565b601054600090819060ff16156108e35760405160e560020a62461bcd028152600401610229906148a1565b603283101580156108f5575060648311155b15156109165760405160e560020a62461bcd028152600401610229906148c1565b600f5483141561093b5760405160e560020a62461bcd02815260040161022990614881565b61094c60023363ffffffff611a8c16565b151561096d5760405160e560020a62461bcd02815260040161022990614841565b61098160086002600063ffffffff611ae916565b905080156109a45760405160e560020a62461bcd028152600401610229906146a1565b600f546109c6906008908890889088906002908960003363ffffffff611b2116565b156109fe578260028760008051602061498083398151915260006040516109ed91906145bb565b60405180910390a460019150610a03565b600091505b50949350505050565b600054600160a060020a03163314610a395760405160e560020a62461bcd02815260040161022990614701565b33ff5b60606108af600833858563ffffffff611c5e16565b60006108966006611daa565b60606108af6004848463ffffffff61197616565b610a796133c1565b6040805160208082018590526c01000000000000000000000000330282840152825160348184030181526054909201928390528151600093918291908401908083835b60208310610adb5780518252601f199092019160209182019101610abc565b6001836020036101000a03801982511681845116808217855250505050505090500191505060405180910390209050610b1e816008611db190919063ffffffff16565b9392505050565b610b3a61062c426103e863ffffffff611e1d16565b50565b60006108966008611e53565b601054600090819081908190819060ff1615610b7a5760405160e560020a62461bcd028152600401610229906148a1565b601054610100900460ff161515610ba65760405160e560020a62461bcd02815260040161022990614741565b610bb9600860033363ffffffff611ae916565b93508315610bdc5760405160e560020a62461bcd02815260040161022990614691565b610bed60043363ffffffff611e5a16565b9250610c0060063363ffffffff611e5a16565b9150610c12838363ffffffff611eb516565b9050600081118015610c245750858110155b1515610c455760405160e560020a62461bcd02815260040161022990614711565b610c5f60088a8a8a600360008c338063ffffffff611b2116565b15610c96578560038a60008051602061498083398151915233604051610c8591906145bb565b60405180910390a460019450610c9b565b600094505b50505050949350505050565b601054600090819060ff1615610cd25760405160e560020a62461bcd028152600401610229906148a1565b610ce360028463ffffffff611a8c16565b15610d035760405160e560020a62461bcd02815260040161022990614861565b610d16600860043363ffffffff611ae916565b90508015610d395760405160e560020a62461bcd028152600401610229906148d1565b610d53600887878760046000808a3363ffffffff611b2116565b156109fe576000600487600080516020614980833981519152866040516109ed91906145bb565b600054600160a060020a03163314610da75760405160e560020a62461bcd02815260040161022990614701565b60008054604051600160a060020a03909116907f8be0079c531659141344cd1fd0a4f28419497f9722a3daafe3b4186f6b6457e0908390a360008054600160a060020a0319169055565b610df96133fc565b6108b260088363ffffffff611ec716565b60008060008551111515610e335760405160e560020a62461bcd028152600401610229906147c1565b5060005b8451811015610e7957610e628582815181101515610e5157fe5b9060200190602002015185856114e6565b1515610e715760009150610e7e565b600101610e37565b600191505b509392505050565b60006108b260068363ffffffff611e5a16565b600054600160a060020a031690565b60006108966004611daa565b600061089660083363ffffffff611f9216565b60606000606080600080610ed96133fc565b60006003610ee76002611daa565b1015610f085760405160e560020a62461bcd028152600401610229906146d1565b610f126008611917565b955060008651111515610f3a5760405160e560020a62461bcd02815260040161022990614801565b8551604051908082528060200260200182016040528015610f7557816020015b610f626133fc565b815260200190600190039081610f5a5790505b50945060009350600092505b855183101561106e57610fb38684815181101515610f9b57fe5b6020908102909101015160089063ffffffff611ec716565b915088826040015111158015610fda5750610fd6896103e863ffffffff611fb116565b4210155b1561101057818585815181101515610fee57fe5b6020908102909101015261100984600163ffffffff611fc816565b9350611063565b611018611fd7565b9050808260c001511015806110315750808260e0015110155b156110635781858581518110151561104557fe5b6020908102909101015261106084600163ffffffff611fc816565b93505b600190920191610f81565b50929791965090945050505050565b600154600090600160a060020a031633146110ad5760405160e560020a62461bcd02815260040161022990614751565b506040517f9bdccb070000000000000000000000000000000000000000000000000000000081528190600160a060020a03821690639bdccb07906110f59030906004016145bb565b602060405180830381600087803b15801561110f57600080fd5b505af1158015611123573d6000803e3d6000fd5b505050506040513d601f19601f8201168201806040525061114791908101906136e0565b505050565b60006108966008611daa565b60606108b260088363ffffffff61206216565b60006108b260028363ffffffff611a8c16565b60606108b260088363ffffffff61219b16565b600061089660083363ffffffff61220116565b606061089660083363ffffffff61222316565b600054600160a060020a03163314806111da5750600154600160a060020a031633145b15156111fb5760405160e560020a62461bcd028152600401610229906146c1565b600160a060020a03811615156112265760405160e560020a62461bcd028152600401610229906146e1565b600154604051600160a060020a038084169216907f399b55200f7f639a63d76efe3dcfa9156ce367058d6b673041b84a628885f5a790600090a360018054600160a060020a031916600160a060020a0392909216919091179055565b600060606000806112916133fc565b60105460009060ff16156112ba5760405160e560020a62461bcd028152600401610229906148a1565b60036112c66002611daa565b10156112e75760405160e560020a62461bcd028152600401610229906146d1565b6112f16008611917565b945084516000141561130657600095506113d7565b60009350600092505b84518310156113d257600a841115611326576113d2565b6113378584815181101515610f9b57fe5b91508682604001511115801561135e575061135a876103e863ffffffff611fb116565b4210155b156113845761136c82612291565b61137d84600163ffffffff611fc816565b93506113c7565b61138c611fd7565b9050808260c001511015806113a55750808260e0015110155b156113c7576113b382612291565b6113c484600163ffffffff611fc816565b93505b60019092019161130f565b600195505b5050505050919050565b601054610100900460ff1690565b606061089660006114006002611daa565b6002919063ffffffff6122fb16565b601054600090610100900460ff161561143d5760405160e560020a62461bcd02815260040161022990614811565b60105460ff16156114635760405160e560020a62461bcd028152600401610229906148a1565b6a52b7d2dcc80cd2e4000000341115801561147e5750600034115b151561149f5760405160e560020a62461bcd02815260040161022990614821565b6114b16004333463ffffffff6123d516565b6040519091508190349033907f90890809c654f11d6e72a28fa60149770a0d11ec6c92319d6ceb2bb0a4ea1a1590600090a450565b60105460009060ff161561150f5760405160e560020a62461bcd028152600401610229906148a1565b61152060023363ffffffff611a8c16565b15156115415760405160e560020a62461bcd028152600401610229906147b1565b61155560088585338663ffffffff6124e916565b156115935781151583857fd25f1576b694ed3c2fa3afbd9165fa5fdf41ddd4a96a97e17fd902e2fbf379d260405160405180910390a4506001610b1e565b5060009392505050565b60006108b260048363ffffffff611e5a16565b601054600090819060ff16156115db5760405160e560020a62461bcd028152600401610229906148a1565b60036115e76002611daa565b10156116085760405160e560020a62461bcd02815260040161022990614681565b61161960028463ffffffff611a8c16565b151561163a5760405160e560020a62461bcd02815260040161022990614831565b61164b60023363ffffffff611a8c16565b151561166c5760405160e560020a62461bcd028152600401610229906147b1565b61167f600860053363ffffffff611ae916565b905080156116a25760405160e560020a62461bcd02815260040161022990614721565b6116bc600887878760056000808a3363ffffffff611b2116565b156109fe576000600587600080516020614980833981519152866040516109ed91906145bb565b600054600160a060020a031633146117105760405160e560020a62461bcd02815260040161022990614701565b600160a060020a038116151561173b5760405160e560020a62461bcd02815260040161022990614781565b60008054604051600160a060020a03808516939216917f8be0079c531659141344cd1fd0a4f28419497f9722a3daafe3b4186f6b6457e091a360008054600160a060020a031916600160a060020a0392909216919091179055565b600154600090600160a060020a031633146117c65760405160e560020a62461bcd02815260040161022990614751565b60105460ff1615156117ed5760405160e560020a62461bcd028152600401610229906146f1565b60038410156118115760405160e560020a62461bcd028152600401610229906148b1565b60328310156118355760405160e560020a62461bcd02815260040161022990614791565b815184146118585760405160e560020a62461bcd028152600401610229906146b1565b50600e839055600f82905560005b600e548110156118a257611899828281518110151561188157fe5b6020908102909101015160029063ffffffff6126d516565b50600101611866565b50506010805460ff191690555050565b60606108af6008848463ffffffff61274a16565b600154600160a060020a031690565b600080806118ea60048563ffffffff611e5a16565b91506118fd60068563ffffffff611e5a16565b905061190f828263ffffffff611eb516565b949350505050565b60608160010160000180548060200260200160405190810160405280929190818152602001828054801561196a57602002820191906000526020600020905b815481526020019060010190808311611956575b50505050509050919050565b60606000818180851161199e5760405160e560020a62461bcd02815260040161022990614761565b60009250846040519080825280602002602001820160405280156119dc57816020015b6119c9613480565b8152602001906001900390816119c15790505b5091508590505b6001870154811015611a8257848314156119fc57611a82565b60018701805482908110611a0c57fe5b60009182526020918290206040805160608101825260039093029091018054600160a060020a03168352600181015493830193909352600290920154918101919091528251839085908110611a5d57fe5b60209081029091010152611a7883600163ffffffff611fc816565b92506001016119e3565b5095945050505050565b60018201546000901515611aa2575060006108b2565b600160a060020a0382166000818152602085905260409020546001850180549091908110611acc57fe5b600091825260209091200154600160a060020a0316149392505050565b6000600160a060020a038216158015611b0d57611b068585612857565b9150610e7e565b611b188585856128e6565b95945050505050565b6000878711611b455760405160e560020a62461bcd028152600401610229906147e1565b611b4f8a8a6129b4565b15611b5c57506000611c51565b600089815260208b8152604082208b815560018082018c9055600282018b9055600382018a90556004820189905560058201889055600b82018054600160a060020a0319908116600160a060020a038a811691909117909255600c8401805460068601889055600790950187905593169087161774ff00000000000000000000000000000000000000001916909155808d018054808301808355918552929093209091018b9055611c0d9190611eb5565b60008a815260208c8152604080832060080193909355600160a060020a038516825260038d018152918120805460018181018355918352929091209091018a905590505b9998505050505050505050565b6060600080828186861015611c885760405160e560020a62461bcd028152600401610229906147f1565b600160a060020a038816600090815260038a0160205260409020600101548610611cc75760405160e560020a62461bcd028152600401610229906148e1565b60009350611cec6001611ce0888a63ffffffff611eb516565b9063ffffffff611fc816565b92506002831015611cfe576002611d00565b825b604051908082528060200260200182016040528015611d29578160200160208202803883390190505b5091508690505b858111611d9e57600160a060020a038816600090815260038a0160205260409020600101805482908110611d6057fe5b90600052602060002001548285815181101515611d7957fe5b60209081029091010152611d9484600163ffffffff611fc816565b9350600101611d30565b50979650505050505050565b6001015490565b611db96133c1565b5060009081526004919091016020908152604091829020825160a08101845281548152600182015492810192909252600281015492820192909252600390910154600160a060020a038116606083015260a060020a900460ff161515608082015290565b600080831515611e305760009150611e4c565b50828202828482811515611e4057fe5b0414611e4857fe5b8091505b5092915050565b6002015490565b6000611e6683836129e7565b611e715760006108af565b600160a060020a0382166000908152602084905260409020546001840180549091908110611e9b57fe5b906000526020600020906003020160020154905092915050565b600082821115611ec157fe5b50900390565b611ecf6133fc565b506000908152602091825260409081902081516101c081018352815481526001820154938101939093526002810154918301919091526003810154606083015260048101546080830152600581015460a0830152600681015460c0830152600781015460e083015260088101546101008301526009810154610120830152600a810154610140830152600b810154600160a060020a03908116610160840152600c9091015490811661018083015260a060020a900460ff1615156101a082015290565b600160a060020a03166000908152600391909101602052604090205490565b6000808284811515611fbf57fe5b04949350505050565b600082820183811015611e4857fe5b6000806000611ff8600f54611fec6002611daa565b9063ffffffff611e1d16565b915061200b82606463ffffffff611fb116565b9050816120236064611fec838263ffffffff611fb116565b1461203e5761203981600163ffffffff611fc816565b612040565b805b905061204c6002611daa565b81116120585780610b1e565b610b1e6002611daa565b600081815260058301602052604081205460609182908080841161209b5760405160e560020a62461bcd02815260040161022990614771565b836040519080825280602002602001820160405280156120d557816020015b6120c26133c1565b8152602001906001900390816120ba5790505b509250600090505b8381101561218d576000868152600588016020526040902080548290811061210157fe5b600091825260208083209091015480835260048a018252604092839020835160a08101855281548152600182015493810193909352600281015493830193909352600390920154600160a060020a038116606083015260ff60a060020a909104161515608082015284519193509084908390811061217b57fe5b602090810290910101526001016120dd565b8294505b5050505092915050565b60008181526005830160209081526040918290208054835181840281018401909452808452606093928301828280156121f457602002820191906000526020600020905b815481526001909101906020018083116121df575b5050505050905092915050565b600160a060020a03166000908152600391909101602052604090206001015490565b600160a060020a03811660009081526003830160209081526040918290208054835181840281018401909452808452606093928301828280156121f457602002820191906000526020600020905b815481526020019060010190808311612271575050505050905092915050565b6002816060015114156122af5780516122a990612a49565b50610b3a565b6004816060015114156122c75780516122a990612ad1565b6005816060015114156122df5780516122a990612b4e565b600381606001511415610b3a5780516122f790612bed565b5050565b6060600081818085116123235760405160e560020a62461bcd028152600401610229906147d1565b8460405190808252806020026020018201604052801561234d578160200160208202803883390190505b5091508590505b6001870154811015611a82578483141561236d57611a82565b6001870180548290811061237d57fe5b6000918252602090912001548251600160a060020a03909116908390859081106123a357fe5b600160a060020a039092166020928302909101909101526123cb83600163ffffffff611fc816565b9250600101612354565b60006123e184846129e7565b1561247857600160a060020a03831660009081526020859052604090205460018501805461243492859291811061241457fe5b906000526020600020906003020160020154611fc890919063ffffffff16565b600160a060020a038416600090815260208690526040902054600186018054909190811061245e57fe5b9060005260206000209060030201600201819055506124a4565b612483848484612c51565b15156124a45760405160e560020a62461bcd02815260040161022990614891565b600160a060020a03831660009081526020859052604090205460018501805490919081106124ce57fe5b90600052602060002090600302016002015490509392505050565b6000806124f687876129b4565b15156125055760009150611a82565b6040805160208082018990526c01000000000000000000000000600160a060020a038816028284015282516034818403018152605490920192839052815191929182918401908083835b6020831061256e5780518252601f19909201916020918201910161254f565b6001836020036101000a038019825116818451168082178552505050505050905001915050604051809103902090506125a78782612cd7565b156125b55760009150611a82565b6000818152600488016020908152604080832089815560018082018a905560039091018054600160a060020a031916600160a060020a038a161774ff0000000000000000000000000000000000000000191660a060020a8915150217905589845260058b01835290832080548083018083559185529290932090910183905561263e9190611eb5565b600082815260048901602052604090206002015582156126925760008681526020889052604090206006015461267b90600163ffffffff611fc816565b6000878152602089905260409020600601556126c8565b6000868152602088905260409020600701546126b590600163ffffffff611fc816565b6000878152602089905260409020600701555b5060019695505050505050565b60006126e18383611a8c565b156126ee575060006108b2565b6001838101805480830180835560009283526020909220018054600160a060020a031916600160a060020a03861617905561272891611eb5565b600160a060020a03831660009081526020859052604090205550600192915050565b60606000808281868610156127745760405160e560020a62461bcd028152600401610229906147f1565b6002880154861061279a5760405160e560020a62461bcd028152600401610229906148e1565b600093506127b36001611ce0888a63ffffffff611eb516565b925060028310156127c55760026127c7565b825b6040519080825280602002602001820160405280156127f0578160200160208202803883390190505b5091508690505b85811161284c576002880180548290811061280e57fe5b9060005260206000200154828581518110151561282757fe5b6020908102909101015261284284600163ffffffff611fc816565b93506001016127f7565b509695505050505050565b600182015460009081908190151561287257600092506128de565b600091505b60018501548210156128d95760018501805486916000918590811061289857fe5b9060005260206000200154815260200190815260200160002090508381600301541415156128c5576128ce565b600192506128de565b600190910190612877565b600092505b505092915050565b600160a060020a038116600090815260038401602052604081205481908190151561291457600092506129ab565b600091505b600160a060020a03841660009081526003870160205260409020548210156129a657600160a060020a038416600090815260038701602052604081208054889291908590811061296557fe5b9060005260206000200154815260200190815260200160002090508481600301541415156129925761299b565b600192506129ab565b600190910190612919565b600092505b50509392505050565b60008181526020839052604081205415156129d1575060006108b2565b5060008181526020929092526040909120541490565b600182015460009015156129fd575060006108b2565b600160a060020a0382166000818152602085905260409020546001850180549091908110612a2757fe5b6000918252602090912060039091020154600160a060020a0316149392505050565b6000612a536133fc565b6000612a6660088563ffffffff611ec716565b9150612a70611fd7565b9050612a9384600f54612a836002611daa565b600892919063ffffffff612dae16565b50808260c0015110158015612aaf57508160e001518260c00151115b15612abd5760a0820151600f555b612ac682612dea565b506001949350505050565b6000612adb6133fc565b6000612aee60088563ffffffff611ec716565b9150612af8611fd7565b9050612b0b84600f54612a836002611daa565b50808260c0015110158015612b2757508160e001518260c00151115b15612abd57610160820151612b449060029063ffffffff6126d516565b50612ac682612dea565b6000612b586133fc565b60006003612b666002611daa565b11612b865760405160e560020a62461bcd02815260040161022990614681565b612b9760088563ffffffff611ec716565b9150612ba1611fd7565b9050612bb484600f54612a836002611daa565b50808260c0015110158015612bd057508160e001518260c00151115b15612abd57610160820151612b449060029063ffffffff612e6416565b6000612bf76133fc565b6000612c0a60088563ffffffff611ec716565b9150612c14611fd7565b9050612c2784600f54612a836002611daa565b50808260c0015110158015612c4357508160e001518260c00151115b15612abd57612abd82612f4a565b6000612c5b613480565b505060408051606081018252600160a060020a0393841680825260018681018054602080860182815286880198895282850184556000938452818420965160039093029096018054600160a060020a03191692909916919091178855935187830181905595516002909701969096559085529490529091205590565b60008181526004830160205260408120541515612cf6575060006108b2565b60008281526004840160209081526040918290208054600390910154835180840192909252600160a060020a03166c0100000000000000000000000002818401528251808203603401815260549091019283905280519092918291908401908083835b60208310612d785780518252601f199092019160209182019101612d59565b5181516020939093036101000a600019018019909116921691909117905260405192018290039091209490941495945050505050565b6000612dba85856129b4565b1515612dc85750600061190f565b5060009283526020939093526040909120600a81019190915560090155600190565b8051600090612e019060089063ffffffff6130bf16565b1515612e225760405160e560020a62461bcd02815260040161022990614731565b612e2c6002611daa565b60c083015183516040517f2578f047ed88a96f2c0fca42107a97614e38fae5204aa60c79fdc29d2b2495c890600090a4506001919050565b6000806000612e738585611a8c565b1515612e8257600092506128de565b600160a060020a0384166000908152602086905260409020546001808701805492945091612eb59163ffffffff611eb516565b81548110612ebf57fe5b600091825260209091200154600186018054600160a060020a039092169250829184908110612eea57fe5b60009182526020808320919091018054600160a060020a031916600160a060020a0394851617905591831681529086905260409020829055600185810154612f3191611eb5565b612f3e60018701826134ab565b50600195945050505050565b6000806000806000612f6b8661016001516004611e5a90919063ffffffff16565b9450612f868661016001516006611e5a90919063ffffffff16565b9350612f98858563ffffffff611eb516565b9250600083118015612fae57508560a001518310155b1515612fcf5760405160e560020a62461bcd028152600401610229906147a1565b60a086015130319250821015612ffa5760405160e560020a62461bcd02815260040161022990614851565b61016086015160a08701516130179160069163ffffffff6123d516565b9050613029858263ffffffff611eb516565b8660a00151876101600151600160a060020a03167f02f25270a4d87bea75db541cdfe559334a275b4a233520ed6c0a2429667cca948460405161306c919061490e565b60405180910390a4856101600151600160a060020a03166108fc8760a001519081150290604051600060405180830381858888f193505050501580156130b6573d6000803e3d6000fd5b50505050505050565b6000806000806130cf86866129b4565b15156130de57600093506133b8565b6000858152602087905260409020600c015460a060020a900460ff161561310857600093506133b8565b60008581526020879052604090206008015460018088018054929550916131349163ffffffff611eb516565b8154811061313e57fe5b9060005260206000200154915081866001016000018481548110151561316057fe5b600091825260208083209091019290925583815290879052604090206008018390556001808701546131979163ffffffff611eb516565b6131a460018801826134ab565b50600090505b600085815260208781526040808320600c0154600160a060020a031683526003890190915290205481101561334357600085815260208781526040808320600c0154600160a060020a0316835260038901909152902080548691908390811061320f57fe5b9060005260206000200154141561333b57600085815260208781526040808320600c018054600160a060020a03908116855260038b0184528285206001908101805480830182559087529486209094018a90559054168352909120805490916132789190611eb5565b8154811061328257fe5b60009182526020808320909101548783528882526040808420600c0154600160a060020a0316845260038a0190925291208054839081106132bf57fe5b60009182526020808320909101929092558681528782526040808220600c0154600160a060020a0316825260038901909252205461330490600163ffffffff611eb516565b600086815260208881526040808320600c0154600160a060020a0316835260038a01909152902061333590826134ab565b50613343565b6001016131aa565b6000858152602087815260408220600c01805474ff0000000000000000000000000000000000000000191660a060020a1790556002880180546001818101808455928552929093209092018790556133a1919063ffffffff611eb516565b600086815260208890526040902060080155600193505b50505092915050565b60a0604051908101604052806000815260200160008152602001600081526020016000600160a060020a031681526020016000151581525090565b6101c06040519081016040528060008152602001600081526020016000815260200160008152602001600081526020016000815260200160008152602001600081526020016000815260200160008152602001600081526020016000600160a060020a031681526020016000600160a060020a031681526020016000151581525090565b6060604051908101604052806000600160a060020a0316815260200160008152602001600081525090565b8154818355818111156111475760008381526020902061114791810190830161088791905b808211156134e457600081556001016134d0565b5090565b60006108af823561496e565b6000601f8201831361350557600080fd5b813561351861351382614943565b61491c565b9150818183526020840193506020810190508385602084028201111561353d57600080fd5b60005b83811015612191578161355388826134e8565b8452506020928301929190910190600101613540565b6000601f8201831361357a57600080fd5b813561358861351382614943565b915081818352602084019350602081019050838560208402820111156135ad57600080fd5b60005b8381101561219157816135c388826135f1565b84525060209283019291909101906001016135b0565b60006108af823561497a565b60006108af825161497a565b60006108af8235610887565b60006020828403121561360f57600080fd5b600061190f84846134e8565b60008060006060848603121561363057600080fd5b600061363c86866134e8565b935050602061364d868287016135f1565b925050604061365e868287016135f1565b9150509250925092565b60008060006060848603121561367d57600080fd5b833567ffffffffffffffff81111561369457600080fd5b6136a086828701613569565b93505060206136b1868287016135f1565b925050604061365e868287016135d9565b6000602082840312156136d457600080fd5b600061190f84846135d9565b6000602082840312156136f257600080fd5b600061190f84846135e5565b60006020828403121561371057600080fd5b600061190f84846135f1565b6000806040838503121561372f57600080fd5b600061373b85856135f1565b925050602061374c858286016135f1565b9150509250929050565b60008060006060848603121561376b57600080fd5b600061377786866135f1565b9350506020613788868287016135f1565b925050604084013567ffffffffffffffff8111156137a557600080fd5b61365e868287016134f4565b6000806000606084860312156137c657600080fd5b60006136a086866135f1565b600080600080608085870312156137e857600080fd5b60006137f487876135f1565b9450506020613805878288016135f1565b9350506040613816878288016135f1565b9250506060613827878288016134e8565b91505092959194509250565b6000806000806080858703121561384957600080fd5b600061385587876135f1565b9450506020613866878288016135f1565b9350506040613877878288016135f1565b9250506060613827878288016135f1565b6138918161496e565b82525050565b60006138a28261496a565b8084526020840193506138b483614964565b60005b828110156138e4576138ca868351613888565b6138d382614964565b6020969096019591506001016138b7565b5093949350505050565b60006138f98261496a565b80845260208401935061390b83614964565b60005b828110156138e457613921868351613a79565b61392a82614964565b60209690960195915060010161390e565b60006139468261496a565b80845260208401935061395883614964565b60005b828110156138e45761396e86835161440c565b61397782614964565b60609690960195915060010161395b565b60006139938261496a565b8084526020840193506139a583614964565b60005b828110156138e4576139bb868351614449565b6139c482614964565b6101c0969096019591506001016139a8565b60006139e18261496a565b8084526020840193506139f383614964565b60005b828110156138e457613a0986835161455e565b613a1282614964565b60a0969096019591506001016139f6565b6000613a2e8261496a565b808452602084019350613a4083614964565b60005b828110156138e457613a56868351613a79565b613a5f82614964565b602096909601959150600101613a43565b6138918161497a565b61389181610887565b601081527f6174206c65617374203320766f74657200000000000000000000000000000000602082015260400190565b602e81527f6f6e6c79206f6e652077697468647261772070726f706f73616c20706572207560208201527f73657220696e20766f74696e672e000000000000000000000000000000000000604082015260600190565b60208082527f6f6e6c792070657263656e742070726f706f73616c20696e20766f74696e672e9082015260400190565b602981527f766f7465727320636f756e74206973206e6f7420657175616c20706172616d6560208201527f74657220636f756e740000000000000000000000000000000000000000000000604082015260600190565b602b81527f6f6e6c79206f776e6572206f722061646d696e6973747261746f722063616e2060208201527f6d6f646966792074686973000000000000000000000000000000000000000000604082015260600190565b600f81527f6d757374206861766520766f7465720000000000000000000000000000000000602082015260400190565b602e81527f43616e206e6f74207472616e736665722061646d696e6973747261746f72207460208201527f6f207a65726f2061646472657373000000000000000000000000000000000000604082015260600190565b601981527f61646d696e206f6e6c7920636f6e666967757265206f6e636500000000000000602082015260400190565b601a81527f6f6e6c79206f776e65722063616e206d6f646966792074686973000000000000602082015260400190565b601d81527f73656e646572206d757374206861766520656e6f756768206d6f6e6579000000602082015260400190565b602c81527f6f6e6c79206f6e6520726563616c6c2070726f706f73616c207065722075736560208201527f7220696e20766f74696e672e0000000000000000000000000000000000000000604082015260600190565b601d81527f6d757374206d6f766520746f20766f746564207375636365737366756c000000602082015260400190565b602981527f6f6e6c79207769746864726177206166746572207365742073746f702064657060208201527f6f73697420666c61670000000000000000000000000000000000000000000000604082015260600190565b602281527f6f6e6c792061646d696e6973747261746f722063616e206d6f6469667920746860208201527f6973000000000000000000000000000000000000000000000000000000000000604082015260600190565b601f81527f636f756e74206e756d626572206d75737420626967676572207468616e203000602082015260400190565b601581527f6d757374206861766520766f74652064657461696c0000000000000000000000602082015260400190565b602681527f43616e206e6f74207472616e73666572206f776e657220746f207a65726f206160208201527f6464726573730000000000000000000000000000000000000000000000000000604082015260600190565b601b81527f70657263656e74206d75737420626967676572207468616e2035300000000000602082015260400190565b601b81527f75736572206d757374206861766520656e6f756768206d6f6e65790000000000602082015260400190565b601581527f6f6e6c7920766f7465722063616e20636f6d6d69740000000000000000000000602082015260400190565b602281527f746f706963696473206c656e677468206d75737420626967676572207468616e60208201527f2030000000000000000000000000000000000000000000000000000000000000604082015260600190565b60208082527f72657475726e206e756d626572206d75737420626967676572207468616e20309082015260400190565b602381527f656e642074696d65206d75737420626967676572207468616e2074696d65737460208201527f616d700000000000000000000000000000000000000000000000000000000000604082015260600190565b601e81527f696e64657820746f206d75737420626967676572207468616e2066726f6d0000602082015260400190565b601581527f6d757374206861766520766f74696e6720646174610000000000000000000000602082015260400190565b600c81527f73746f70206465706f7369740000000000000000000000000000000000000000602082015260400190565b601b81527f63616e206e6f74206465706f73697420313030206d696c6c696f6e0000000000602082015260400190565b601781527f6d75737420726563616c6c20657869737420766f746572000000000000000000602082015260400190565b602381527f6f6e6c7920766f7465722063616e20636f6d6d697420636f6e6669672063686160208201527f6e67650000000000000000000000000000000000000000000000000000000000604082015260600190565b601f81527f636f6e7472616374206d757374206861766520656e6f756768206d6f6e657900602082015260400190565b601881527f63616e206e6f7420766f746520657869737420766f7465720000000000000000602082015260400190565b602881527f6e6576657220726563656976652066756e647320696e2066616c6c6261636b2060208201527f66756e6374696f6e000000000000000000000000000000000000000000000000604082015260600190565b601181527f6d75737420626520646966666572656e74000000000000000000000000000000602082015260400190565b601081527f696e736572742064617461206661696c00000000000000000000000000000000602082015260400190565b601c81527f61646d696e20646f6573206e6f7420636f6e6669677572652079657400000000602082015260400190565b601e81527f766f74657220636f756e74206d75737420626967676572207468616e20330000602082015260400190565b602181527f766f7465722070657263656e74206d75737420626967676572207468616e203560208201527f3000000000000000000000000000000000000000000000000000000000000000604082015260600190565b602b81527f6f6e6c79206f6e6520766f7465722070726f706f73616c20706572207573657260208201527f20696e20766f74696e672e000000000000000000000000000000000000000000604082015260600190565b602681527f696e64657820746f206d75737420736d616c6c6572207468616e20766f74656460208201527f20636f756e740000000000000000000000000000000000000000000000000000604082015260600190565b8051606083019061441d8482613888565b5060208201516144306020850182613a79565b5060408201516144436040850182613a79565b50505050565b80516101c083019061445b8482613a79565b50602082015161446e6020850182613a79565b5060408201516144816040850182613a79565b5060608201516144946060850182613a79565b5060808201516144a76080850182613a79565b5060a08201516144ba60a0850182613a79565b5060c08201516144cd60c0850182613a79565b5060e08201516144e060e0850182613a79565b506101008201516144f5610100850182613a79565b5061012082015161450a610120850182613a79565b5061014082015161451f610140850182613a79565b50610160820151614534610160850182613888565b50610180820151614549610180850182613888565b506101a08201516144436101a0850182613a70565b805160a083019061456f8482613a79565b5060208201516145826020850182613a79565b5060408201516145956040850182613a79565b5060608201516145a86060850182613888565b5060808201516144436080850182613a70565b602081016108b28284613888565b608081016145d78287613888565b6145e46020830186613a79565b6145f16040830185613a79565b611b186060830184613a79565b602080825281016108af8184613897565b602080825281016108af81846138ee565b602080825281016108af818461393b565b604080825281016146428185613988565b9050610b1e6020830184613a79565b602080825281016108af81846139d6565b602080825281016108af8184613a23565b602081016108b28284613a70565b602080825281016108b281613a82565b602080825281016108b281613ab2565b602080825281016108b281613b08565b602080825281016108b281613b38565b602080825281016108b281613b8e565b602080825281016108b281613be4565b602080825281016108b281613c14565b602080825281016108b281613c6a565b602080825281016108b281613c9a565b602080825281016108b281613cca565b602080825281016108b281613cfa565b602080825281016108b281613d50565b602080825281016108b281613d80565b602080825281016108b281613dd6565b602080825281016108b281613e2c565b602080825281016108b281613e5c565b602080825281016108b281613e8c565b602080825281016108b281613ee2565b602080825281016108b281613f12565b602080825281016108b281613f42565b602080825281016108b281613f72565b602080825281016108b281613fc8565b602080825281016108b281613ff8565b602080825281016108b28161404e565b602080825281016108b28161407e565b602080825281016108b2816140ae565b602080825281016108b2816140de565b602080825281016108b28161410e565b602080825281016108b28161413e565b602080825281016108b281614194565b602080825281016108b2816141c4565b602080825281016108b2816141f4565b602080825281016108b28161424a565b602080825281016108b28161427a565b602080825281016108b2816142aa565b602080825281016108b2816142da565b602080825281016108b28161430a565b602080825281016108b281614360565b602080825281016108b2816143b6565b6101c081016108b28284614449565b60a081016108b2828461455e565b602081016108b28284613a79565b60405181810167ffffffffffffffff8111828210171561493b57600080fd5b604052919050565b600067ffffffffffffffff82111561495a57600080fd5b5060209081020190565b60200190565b5190565b600160a060020a031690565b15159056005345ad70e73bf3f5851ae91e5899f6d4d7429bfdeb950124c78d5916933b6f5ca265627a7a723058207baaabd1e60940bfee02ddc70b75fae2765ecb8711d6919fd7ffb00cd15de2176c6578706572696d656e74616cf50037",
  "source": "pragma solidity 0.4.24;\npragma experimental ABIEncoderV2;\n\nimport \"jcc-solidity-utils/contracts/math/SafeMath.sol\";\nimport \"jcc-solidity-utils/contracts/owner/Administrative.sol\";\nimport \"jcc-solidity-utils/contracts/utils/AddressUtils.sol\";\nimport \"jcc-solidity-utils/contracts/list/AddressList.sol\";\nimport \"jcc-solidity-utils/contracts/list/BalanceList.sol\";\nimport \"jcc-solidity-utils/contracts/interface/IJccMoacAlarm.sol\";\nimport \"jcc-solidity-utils/contracts/interface/IJccMoacAlarmCallback.sol\";\nimport \"./utils/Proposal.sol\";\nimport \"./utils/ProposalList.sol\";\n\n/**\n\n1. \n2. M-N\n3. \n4. M-N\n5. \n6. \n7. \n8. \n9. \n */\ncontract JccMoacMultiSig is Administrative, IJccMoacAlarmCallback {\n  using SafeMath for uint256;\n  using AddressUtils for address;\n\n  using AddressList for AddressList.addressMap;\n  using ProposalList for ProposalList.proposalMap;\n  using BalanceList for BalanceList.balanceMap;\n\n  /**\n  \n   */\n  // :\n  uint constant TYPE_CONFIG_COUNT = 1;\n  // :\n  uint constant TYPE_CONFIG_PERCENT = 2;\n  // \n  uint constant TYPE_WITHDRAW = 3;\n  // \n  uint constant TYPE_VOTE = 4;\n  // \n  uint constant TYPE_RECALL = 5;\n\n  /**\n  \n   */\n  AddressList.addressMap private _voters;\n\n  /**\n  \n   */\n  BalanceList.balanceMap private _balanceOfDeposit;\n  BalanceList.balanceMap private _balanceOfWithdraw;\n\n  // \n  ProposalList.proposalMap _proposals;\n\n  /**\n  M-N,\n   */\n  uint private _voterCount;\n  uint private _percent;\n\n  /**\n  \n   */\n  bool private _onlyonce;\n  /**\n  \n   */\n  bool private _stopDeposit;\n\n  // hundred million of moac, max deposit and withdraw\n  uint constant MAX_VALUE = 100000000 * 10**18;\n\n  constructor() Administrative() public {\n    _onlyonce = true;\n    _stopDeposit = false;\n    _voterCount = 3;\n    _percent = 50;\n  }\n\n  function configureOnce(uint count, uint percent, address[] memory voters)\n  public onlyAdministrator\n  {\n    require(_onlyonce, \"admin only configure once\");\n    require(count >= 3, \"voter count must bigger than 3\");\n    require(percent >= 50, \"percent must bigger than 50\");\n    require(voters.length == count, \"voters count is not equal parameter count\");\n\n    _voterCount = count;\n    _percent = percent;\n\n    uint i;\n    for (i = 0; i < _voterCount; i++) {\n      _voters.insert(voters[i]);\n    }\n\n    _onlyonce = false;\n  }\n  // \n  function setStopDeposit(bool flag) public onlyAdministrator\n  {\n    _stopDeposit = flag;\n  }\n  function getStopDeposit() public view returns (bool)\n  {\n    return _stopDeposit;\n  }\n\n  function getPercent() public view returns (uint) {\n    return _percent;\n  }\n\n  function getVoters() public view returns (address[]) {\n    return _voters.getList(0, _voters.count());\n  }\n\n  function isVoter(address addr) public view returns (bool) {\n    return _voters.exist(addr);\n  }\n  event CreateProposal(uint indexed topicId, uint indexed voteType, uint indexed value, address target);\n\n  // ,\n  function createPercentProposal(uint topicId, uint timestamp, uint endtime, uint percent) public returns (bool) {\n    require(!_onlyonce, \"admin does not configure yet\");\n    require(percent >= 50 && percent <= 100, \"voter percent must bigger than 50\");\n    require(percent != _percent, \"must be different\");\n    require(_voters.exist(msg.sender), \"only voter can commit config change\");\n\n    // \n    bool exist = _proposals.votingExist(TYPE_CONFIG_PERCENT, address(0));\n    require(!exist, \"only percent proposal in voting.\");\n\n    if (_proposals.insertTopic(topicId, timestamp, endtime, TYPE_CONFIG_PERCENT, _percent, percent, address(0), msg.sender)) {\n      emit CreateProposal(topicId, TYPE_CONFIG_PERCENT, percent, address(0));\n      return true;\n    }\n    return false;\n  }\n\n  // ,\n  function createVoterProposal(uint topicId, uint timestamp, uint endtime, address target) public returns (bool) {\n    require(!_onlyonce, \"admin does not configure yet\");\n    require(!_voters.exist(target), \"can not vote exist voter\");\n\n    // \n    bool exist = _proposals.votingExist(TYPE_VOTE, msg.sender);\n    require(!exist, \"only one voter proposal per user in voting.\");\n\n    if (_proposals.insertTopic(topicId, timestamp, endtime, TYPE_VOTE, 0, 0, target, msg.sender)) {\n      emit CreateProposal(topicId, TYPE_VOTE, 0, target);\n      return true;\n    }\n    return false;\n  }\n\n  // ,\n  function createRecallProposal(uint topicId, uint timestamp, uint endtime, address target) public returns (bool) {\n    require(!_onlyonce, \"admin does not configure yet\");\n    require(_voters.count() >= 3, \"at least 3 voter\");\n    require(_voters.exist(target), \"must recall exist voter\");\n    require(_voters.exist(msg.sender), \"only voter can commit\");\n\n    // \n    bool exist = _proposals.votingExist(TYPE_RECALL, msg.sender);\n    require(!exist, \"only one recall proposal per user in voting.\");\n\n    if (_proposals.insertTopic(topicId, timestamp, endtime, TYPE_RECALL, 0, 0, target, msg.sender)) {\n      emit CreateProposal(topicId, TYPE_RECALL, 0, target);\n      return true;\n    }\n    return false;\n  }\n\n  // ,\n  function createWithdrawProposal(uint topicId, uint timestamp, uint endtime, uint amount) public returns (bool) {\n    require(!_onlyonce, \"admin does not configure yet\");\n    require(_stopDeposit, \"only withdraw after set stop deposit flag\");\n\n    bool exist = _proposals.votingExist(TYPE_WITHDRAW, msg.sender);\n    require(!exist, \"only one withdraw proposal per user in voting.\");\n\n    uint _bd = _balanceOfDeposit.balance(msg.sender);\n    uint _bw = _balanceOfWithdraw.balance(msg.sender);\n    uint _amount = _bd.sub(_bw);\n\n    // ,0\n    require(_amount > 0 && _amount >= amount, \"sender must have enough money\");\n\n    if (_proposals.insertTopic(topicId, timestamp, endtime, TYPE_WITHDRAW, 0, amount, msg.sender, msg.sender)) {\n      emit CreateProposal(topicId, TYPE_WITHDRAW, amount, msg.sender);\n      return true;\n    }\n    return false;\n  }\n\n  function getVotingCount() public view returns (uint) {\n    return _proposals.getVotingCount();\n  }\n\n  function getVotedCount() public view returns (uint) {\n    return _proposals.getVotedCount();\n  }\n\n  function getMyVotingCount() public view returns (uint) {\n    return _proposals.getVotingCountBySponsor(msg.sender);\n  }\n\n  function getMyVotedCount() public view returns (uint) {\n    return _proposals.getVotedCountBySponsor(msg.sender);\n  }\n\n  function getAllVotingTopicIds() public view returns (uint[]) {\n    return _proposals.getAllVotingTopicIds();\n  }\n\n  function getAllMyVotingTopicIds() public view returns (uint[]) {\n    return _proposals.getAllMyVotingTopicIds(msg.sender);\n  }\n\n  function getVotedTopicIds(uint from, uint to) public view returns (uint[] memory) {\n    return _proposals.getVotedTopicIds(from, to);\n  }\n\n  function getMyVotedTopicIds(uint from, uint to) public view returns (uint[] memory) {\n    return _proposals.getMyVotedTopicIds(msg.sender, from, to);\n  }\n\n  function getTopic(uint topicId) public view returns (Proposal.topic) {\n    return _proposals.getTopic(topicId);\n  }\n\n  event Vote(uint indexed topicId, uint indexed timestamp, bool indexed confirm);\n  // \n  function voteTopic(uint topicId, uint timestamp, bool confirm) public returns (bool) {\n    require(!_onlyonce, \"admin does not configure yet\");\n    require(_voters.exist(msg.sender), \"only voter can commit\");\n\n    if (_proposals.voteTopic(topicId, timestamp, msg.sender, confirm)) {\n      emit Vote(topicId, timestamp, confirm);\n      return true;\n    }\n\n    return false;\n  }\n\n  // \n  function batchVoteTopic(uint[] topicIds, uint timestamp, bool confirm) public returns (bool) {\n    require(topicIds.length > 0, \"topicids length must bigger than 0\");\n\n    for (uint i = 0; i < topicIds.length; i++) {\n      if (!voteTopic(topicIds[i], timestamp, confirm)) {\n        return false;\n      }\n    }\n\n    return true;\n  }\n\n  function getDetailIdxs(uint topicId) public view returns (bytes32[]) {\n    return _proposals.getDetailIdxs(topicId);\n  }\n\n  function getVoteDetail(uint topicId) public view returns (Proposal.voteDetail) {\n    bytes32 key = keccak256(abi.encodePacked(topicId, msg.sender));\n    return _proposals.getVoteDetail(key);\n  }\n\n  function getVoteDetailsByTopic(uint topicId) public view returns (Proposal.voteDetail[]) {\n    return _proposals.getVoteDetailsByTopic(topicId);\n  }\n\n  // \n  function getLeastVoterCount() internal view returns(uint) {\n    uint _base = _voters.count().mul(_percent);\n    uint _count = _base.div(100);\n\n    _count = _base.div(100).mul(100) == _base ? _count : _count.add(1);\n\n    // \n    _count = _count > _voters.count() ? _voters.count() : _count;\n\n    return _count;\n  }\n\n  // ,\n  function haveExpire(uint endtime) public view returns(Proposal.topic[], uint) {\n    // \n    require(_voters.count() >= 3, \"must have voter\");\n    uint[] memory _voting = _proposals.getAllVotingTopicIds();\n    require(_voting.length > 0, \"must have voting data\");\n\n    Proposal.topic[] memory ret = new Proposal.topic[](_voting.length);\n    uint len = 0;\n    for (uint i = 0; i < _voting.length; i++) {\n      Proposal.topic memory t = _proposals.getTopic(_voting[i]);\n      // \n      if (t.endtime <= endtime && block.timestamp >= endtime.div(1000)) {\n        ret[len] = t;\n        len = len.add(1);\n        continue;\n      }\n\n      // \n      uint _baseCount = getLeastVoterCount();\n\n      if (t.yesCount >= _baseCount || t.noCount >= _baseCount) {\n        ret[len] = t;\n        len = len.add(1);\n      }\n    }\n\n    return (ret, len);\n  }\n\n  event CloseProposal(uint indexed topicId, uint indexed yesCount, uint indexed totalCount);\n\n  function processMoveTopic(Proposal.topic memory t) internal returns (bool) {\n    require(_proposals.moveTopic(t.topicId), \"must move to voted successful\");\n\n    emit CloseProposal(t.topicId, t.yesCount, _voters.count());\n    return true;\n  }\n\n  function processPercentExpire(uint topicId) internal returns (bool) {\n    Proposal.topic memory t = _proposals.getTopic(topicId);\n\n    uint _baseCount = getLeastVoterCount();\n\n    _proposals.processTopic(topicId, _percent, _voters.count());\n    if (t.yesCount >= _baseCount && t.yesCount > t.noCount) {\n      _percent = t.value;\n    }\n\n    processMoveTopic(t);\n\n    return true;\n  }\n\n  function processVoteExpire(uint topicId) internal returns (bool) {\n    Proposal.topic memory t = _proposals.getTopic(topicId);\n\n    uint _baseCount = getLeastVoterCount();\n\n    _proposals.processTopic(topicId, _percent, _voters.count());\n    if (t.yesCount >= _baseCount && t.yesCount > t.noCount) {\n      _voters.insert(t.target);\n    }\n\n    processMoveTopic(t);\n\n    return true;\n  }\n\n  function processRecallExpire(uint topicId) internal returns (bool) {\n    // 3\n    require(_voters.count() > 3, \"at least 3 voter\");\n    Proposal.topic memory t = _proposals.getTopic(topicId);\n\n    uint _baseCount = getLeastVoterCount();\n\n    _proposals.processTopic(topicId, _percent, _voters.count());\n    if (t.yesCount >= _baseCount && t.yesCount > t.noCount) {\n      _voters.remove(t.target);\n    }\n\n    processMoveTopic(t);\n\n    return true;\n  }\n\n  event Withdraw(address indexed user, uint indexed amount, uint totalWithdraw, uint indexed left);\n\n  function withdraw(Proposal.topic memory t) internal {\n    uint _bd = _balanceOfDeposit.balance(t.target);\n    uint _bw = _balanceOfWithdraw.balance(t.target);\n    uint _amount = _bd.sub(_bw);\n\n    // ,0\n    require(_amount > 0 && _amount >= t.value, \"user must have enough money\");\n\n    uint all = address(this).balance;\n    require(all >= t.value, \"contract must have enough money\");\n\n    uint totalWithdraw = _balanceOfWithdraw.add(t.target, t.value);\n    emit Withdraw(t.target, t.value, totalWithdraw, _bd.sub(totalWithdraw));\n\n    t.target.transfer(t.value);\n  }\n\n  function processWithdrawExpire(uint topicId) internal returns (bool) {\n    Proposal.topic memory t = _proposals.getTopic(topicId);\n\n    uint _baseCount = getLeastVoterCount();\n\n    _proposals.processTopic(topicId, _percent, _voters.count());\n    if (t.yesCount >= _baseCount && t.yesCount > t.noCount) {\n      // \n      withdraw(t);\n    }\n\n    processMoveTopic(t);\n\n    return true;\n  }\n\n  function process(Proposal.topic t) internal {\n    // \n    if (t.voteType == TYPE_CONFIG_PERCENT) {\n      processPercentExpire(t.topicId);\n    }else if (t.voteType == TYPE_VOTE) {\n      // \n      processVoteExpire(t.topicId);\n    }else if (t.voteType == TYPE_RECALL) {\n      // \n      processRecallExpire(t.topicId);\n    }else if (t.voteType == TYPE_WITHDRAW) {\n      // \n      processWithdrawExpire(t.topicId);\n    }\n  }\n\n  function processExpire(uint endtime) public returns (bool) {\n    require(!_onlyonce, \"admin does not configure yet\");\n    // \n    require(_voters.count() >= 3, \"must have voter\");\n    uint[] memory _voting = _proposals.getAllVotingTopicIds();\n    if (_voting.length == 0) {\n      return false;\n    }\n\n    uint len = 0;\n    for (uint i = 0; i < _voting.length; i++) {\n      // 10gas\n      // \n      // gasgas\n      if (len > 10) {\n        break;\n      }\n      Proposal.topic memory t = _proposals.getTopic(_voting[i]);\n\n      // \n      if (t.endtime <= endtime && block.timestamp >= endtime.div(1000)) {\n        process(t);\n        len = len.add(1);\n        continue;\n      }\n\n      // \n      uint _baseCount = getLeastVoterCount();\n\n      if (t.yesCount >= _baseCount || t.noCount >= _baseCount) {\n        process(t);\n        len = len.add(1);\n      }\n    }\n\n    return true;\n  }\n\n  // \n  function jccMoacAlarmCallback() public {\n    // \n    processExpire(block.timestamp.mul(1000));\n  }\n\n  // \n  function setAlarm(address _alarmAddr, uint256 _type, uint256 _period) public onlyAdministrator {\n    // type, begin\n    IJccMoacAlarm alarm = IJccMoacAlarm(_alarmAddr);\n    // \n    alarm.createAlarm(address(this), _type, block.timestamp, _period);\n  }\n\n  // \n  function removeAlarm(address alarmAddr) public onlyAdministrator {\n    IJccMoacAlarm alarm = IJccMoacAlarm(alarmAddr);\n    // \n    alarm.removeAlarm(address(this));\n  }\n\n  event Deposit(address indexed user, uint indexed amount, uint indexed total);\n  /**\n  \n  DAPP\n   */\n  function deposit() public payable\n  {\n    require(!_stopDeposit, \"stop deposit\");\n    require(!_onlyonce, \"admin does not configure yet\");\n    require(msg.value <= MAX_VALUE && msg.value > 0, \"can not deposit 100 million\");\n\n    uint total = _balanceOfDeposit.add(msg.sender, msg.value);\n    emit Deposit(msg.sender, msg.value, total);\n  }\n\n  function getBalance(address _addr) public view returns (uint)\n  {\n    uint _d = _balanceOfDeposit.balance(_addr);\n    uint _w = _balanceOfWithdraw.balance(_addr);\n\n    return _d.sub(_w);\n  }\n  function getDepositBalance(address _addr) public view returns (uint)\n  {\n    return _balanceOfDeposit.balance(_addr);\n  }\n  function getDepositCount() public view returns (uint)\n  {\n    return _balanceOfDeposit.count();\n  }\n  function getDepositList(uint from, uint count) public view returns (BalanceList.element[] memory)\n  {\n    return _balanceOfDeposit.getList(from, count);\n  }\n  function getWithdrawBalance(address _addr) public view returns (uint)\n  {\n    return _balanceOfWithdraw.balance(_addr);\n  }\n  function getWithdrawCount() public view returns (uint)\n  {\n    return _balanceOfWithdraw.count();\n  }\n  function getWithdrawList(uint from, uint count) public view returns (BalanceList.element[] memory)\n  {\n    return _balanceOfWithdraw.getList(from, count);\n  }\n  // \n  function() public payable {\n    require(false, \"never receive funds in fallback function\");\n  }\n  // \n  function kill() public onlyOwner {\n    selfdestruct(msg.sender);\n  }\n}",
  "sourcePath": "/Users/chtian/Documents/01_work/01_develope/jcc/jcc-moac-multisig-wallet/contract/contracts/JccMoacMultiSig.sol",
  "compiler": {
    "name": "solc",
    "version": "0.4.24+commit.e67f0147.Emscripten.clang"
  },
  "schemaVersion": "3.0.16",
  "updatedAt": "2019-11-05T17:28:18.229Z",
  "devdoc": {
    "methods": {
      "renounceOwnership()": {
        "details": ""
      }
    }
  },
  "userdoc": {
    "methods": {
      "deposit()": {
        "notice": " DAPP"
      }
    }
  }
}